{
  "contractName": "Tether",
  "abi": [
    {
      "inputs": [],
      "payable": false,
      "stateMutability": "nonpayable",
      "type": "constructor"
    },
    {
      "anonymous": false,
      "inputs": [
        {
          "indexed": true,
          "internalType": "address",
          "name": "_owner",
          "type": "address"
        },
        {
          "indexed": true,
          "internalType": "address",
          "name": "_spender",
          "type": "address"
        },
        {
          "indexed": false,
          "internalType": "uint256",
          "name": "_value",
          "type": "uint256"
        }
      ],
      "name": "Approval",
      "type": "event"
    },
    {
      "anonymous": false,
      "inputs": [
        {
          "indexed": true,
          "internalType": "address",
          "name": "_from",
          "type": "address"
        },
        {
          "indexed": true,
          "internalType": "address",
          "name": "_to",
          "type": "address"
        },
        {
          "indexed": false,
          "internalType": "uint256",
          "name": "_value",
          "type": "uint256"
        }
      ],
      "name": "Transfer",
      "type": "event"
    },
    {
      "constant": true,
      "inputs": [
        {
          "internalType": "address",
          "name": "",
          "type": "address"
        },
        {
          "internalType": "address",
          "name": "",
          "type": "address"
        }
      ],
      "name": "allowance",
      "outputs": [
        {
          "internalType": "uint256",
          "name": "",
          "type": "uint256"
        }
      ],
      "payable": false,
      "stateMutability": "view",
      "type": "function"
    },
    {
      "constant": true,
      "inputs": [
        {
          "internalType": "address",
          "name": "",
          "type": "address"
        }
      ],
      "name": "balanceOf",
      "outputs": [
        {
          "internalType": "uint256",
          "name": "",
          "type": "uint256"
        }
      ],
      "payable": false,
      "stateMutability": "view",
      "type": "function"
    },
    {
      "constant": true,
      "inputs": [],
      "name": "decimals",
      "outputs": [
        {
          "internalType": "uint8",
          "name": "",
          "type": "uint8"
        }
      ],
      "payable": false,
      "stateMutability": "view",
      "type": "function"
    },
    {
      "constant": true,
      "inputs": [],
      "name": "name",
      "outputs": [
        {
          "internalType": "string",
          "name": "",
          "type": "string"
        }
      ],
      "payable": false,
      "stateMutability": "view",
      "type": "function"
    },
    {
      "constant": true,
      "inputs": [],
      "name": "symbol",
      "outputs": [
        {
          "internalType": "string",
          "name": "",
          "type": "string"
        }
      ],
      "payable": false,
      "stateMutability": "view",
      "type": "function"
    },
    {
      "constant": false,
      "inputs": [
        {
          "internalType": "address",
          "name": "_to",
          "type": "address"
        },
        {
          "internalType": "uint256",
          "name": "_value",
          "type": "uint256"
        }
      ],
      "name": "transfer",
      "outputs": [
        {
          "internalType": "bool",
          "name": "success",
          "type": "bool"
        }
      ],
      "payable": false,
      "stateMutability": "nonpayable",
      "type": "function"
    },
    {
      "constant": false,
      "inputs": [
        {
          "internalType": "address",
          "name": "_spender",
          "type": "address"
        },
        {
          "internalType": "uint256",
          "name": "_value",
          "type": "uint256"
        }
      ],
      "name": "approve",
      "outputs": [
        {
          "internalType": "bool",
          "name": "success",
          "type": "bool"
        }
      ],
      "payable": false,
      "stateMutability": "nonpayable",
      "type": "function"
    },
    {
      "constant": false,
      "inputs": [
        {
          "internalType": "address",
          "name": "_from",
          "type": "address"
        },
        {
          "internalType": "address",
          "name": "_to",
          "type": "address"
        },
        {
          "internalType": "uint256",
          "name": "_value",
          "type": "uint256"
        }
      ],
      "name": "transferFrom",
      "outputs": [
        {
          "internalType": "bool",
          "name": "success",
          "type": "bool"
        }
      ],
      "payable": false,
      "stateMutability": "nonpayable",
      "type": "function"
    }
  ],
  "bytecode": "0x60806040526040518060400160405280600781526020017f6d546574686572000000000000000000000000000000000000000000000000008152506000908051906020019061004f92919061011c565b506040518060400160405280600581526020017f6d555344540000000000000000000000000000000000000000000000000000008152506001908051906020019061009b92919061011c565b50670de0b6b3a76400006002556012600360006101000a81548160ff021916908360ff1602179055503480156100d057600080fd5b50600254600460003373ffffffffffffffffffffffffffffffffffffffff1673ffffffffffffffffffffffffffffffffffffffff168152602001908152602001600020819055506101c1565b828054600181600116156101000203166002900490600052602060002090601f016020900481019282601f1061015d57805160ff191683800117855561018b565b8280016001018555821561018b579182015b8281111561018a57825182559160200191906001019061016f565b5b509050610198919061019c565b5090565b6101be91905b808211156101ba5760008160009055506001016101a2565b5090565b90565b610a4e806101d06000396000f3fe608060405234801561001057600080fd5b50600436106100885760003560e01c806370a082311161005b57806370a082311461022057806395d89b4114610278578063a9059cbb146102fb578063dd62ed3e1461036157610088565b806306fdde031461008d578063095ea7b31461011057806323b872dd14610176578063313ce567146101fc575b600080fd5b6100956103d9565b6040518080602001828103825283818151815260200191508051906020019080838360005b838110156100d55780820151818401526020810190506100ba565b50505050905090810190601f1680156101025780820380516001836020036101000a031916815260200191505b509250505060405180910390f35b61015c6004803603604081101561012657600080fd5b81019080803573ffffffffffffffffffffffffffffffffffffffff16906020019092919080359060200190929190505050610477565b604051808215151515815260200191505060405180910390f35b6101e26004803603606081101561018c57600080fd5b81019080803573ffffffffffffffffffffffffffffffffffffffff169060200190929190803573ffffffffffffffffffffffffffffffffffffffff16906020019092919080359060200190929190505050610569565b604051808215151515815260200191505060405180910390f35b6102046107d4565b604051808260ff1660ff16815260200191505060405180910390f35b6102626004803603602081101561023657600080fd5b81019080803573ffffffffffffffffffffffffffffffffffffffff1690602001909291905050506107e7565b6040518082815260200191505060405180910390f35b6102806107ff565b6040518080602001828103825283818151815260200191508051906020019080838360005b838110156102c05780820151818401526020810190506102a5565b50505050905090810190601f1680156102ed5780820380516001836020036101000a031916815260200191505b509250505060405180910390f35b6103476004803603604081101561031157600080fd5b81019080803573ffffffffffffffffffffffffffffffffffffffff1690602001909291908035906020019092919050505061089d565b604051808215151515815260200191505060405180910390f35b6103c36004803603604081101561037757600080fd5b81019080803573ffffffffffffffffffffffffffffffffffffffff169060200190929190803573ffffffffffffffffffffffffffffffffffffffff1690602001909291905050506109f4565b6040518082815260200191505060405180910390f35b60008054600181600116156101000203166002900480601f01602080910402602001604051908101604052809291908181526020018280546001816001161561010002031660029004801561046f5780601f106104445761010080835404028352916020019161046f565b820191906000526020600020905b81548152906001019060200180831161045257829003601f168201915b505050505081565b600081600560003373ffffffffffffffffffffffffffffffffffffffff1673ffffffffffffffffffffffffffffffffffffffff16815260200190815260200160002060008573ffffffffffffffffffffffffffffffffffffffff1673ffffffffffffffffffffffffffffffffffffffff168152602001908152602001600020819055508273ffffffffffffffffffffffffffffffffffffffff163373ffffffffffffffffffffffffffffffffffffffff167f8c5be1e5ebec7d5bd14f71427d1e84f3dd0314c0f7b2291e5b200ac8c7c3b925846040518082815260200191505060405180910390a36001905092915050565b6000600460008573ffffffffffffffffffffffffffffffffffffffff1673ffffffffffffffffffffffffffffffffffffffff168152602001908152602001600020548211156105b757600080fd5b600560008573ffffffffffffffffffffffffffffffffffffffff1673ffffffffffffffffffffffffffffffffffffffff16815260200190815260200160002060003373ffffffffffffffffffffffffffffffffffffffff1673ffffffffffffffffffffffffffffffffffffffff1681526020019081526020016000205482111561064057600080fd5b81600460008573ffffffffffffffffffffffffffffffffffffffff1673ffffffffffffffffffffffffffffffffffffffff1681526020019081526020016000206000828254019250508190555081600460008673ffffffffffffffffffffffffffffffffffffffff1673ffffffffffffffffffffffffffffffffffffffff1681526020019081526020016000206000828254039250508190555081600560003373ffffffffffffffffffffffffffffffffffffffff1673ffffffffffffffffffffffffffffffffffffffff16815260200190815260200160002060008673ffffffffffffffffffffffffffffffffffffffff1673ffffffffffffffffffffffffffffffffffffffff168152602001908152602001600020600082825403925050819055508273ffffffffffffffffffffffffffffffffffffffff168473ffffffffffffffffffffffffffffffffffffffff167fddf252ad1be2c89b69c2b068fc378daa952ba7f163c4a11628f55a4df523b3ef846040518082815260200191505060405180910390a3600190509392505050565b600360009054906101000a900460ff1681565b60046020528060005260406000206000915090505481565b60018054600181600116156101000203166002900480601f0160208091040260200160405190810160405280929190818152602001828054600181600116156101000203166002900480156108955780601f1061086a57610100808354040283529160200191610895565b820191906000526020600020905b81548152906001019060200180831161087857829003601f168201915b505050505081565b600081600460003373ffffffffffffffffffffffffffffffffffffffff1673ffffffffffffffffffffffffffffffffffffffff1681526020019081526020016000205410156108eb57600080fd5b81600460003373ffffffffffffffffffffffffffffffffffffffff1673ffffffffffffffffffffffffffffffffffffffff1681526020019081526020016000206000828254039250508190555081600460008573ffffffffffffffffffffffffffffffffffffffff1673ffffffffffffffffffffffffffffffffffffffff168152602001908152602001600020600082825401925050819055508273ffffffffffffffffffffffffffffffffffffffff163373ffffffffffffffffffffffffffffffffffffffff167fddf252ad1be2c89b69c2b068fc378daa952ba7f163c4a11628f55a4df523b3ef846040518082815260200191505060405180910390a36001905092915050565b600560205281600052604060002060205280600052604060002060009150915050548156fea265627a7a723158200a365d471e6fd8ec98fee809a067acb17c9a89608b864047844b6a3814ee5c3264736f6c63430005110032",
  "source": "pragma solidity ^0.5.0;\n\ncontract Tether {\n    string public name = 'mTether';\n    string public symbol = 'mUSDT';\n    uint256 totalSupply = 1000000000000000000;\n    uint8 public decimals = 18;\n\n    event Transfer(\n        address indexed _from,\n        address indexed _to,\n        uint _value\n    );\n\n   event Approval(\n        address indexed _owner,\n        address indexed _spender, \n        uint _value\n    );\n\n     mapping(address => uint256) public balanceOf;\n      mapping(address => mapping(address => uint256)) public allowance;\n    \n    constructor() public {\n        balanceOf[msg.sender] = totalSupply;\n    }\n\n      function transfer(address _to, uint256 _value) public returns (bool success) {\n        // require that the value is greater or equal for transfer\n        require(balanceOf[msg.sender] >= _value);\n         // transfer the amount and subtract the balance\n        balanceOf[msg.sender] -= _value;\n        // add the balance\n        balanceOf[_to] += _value;\n        emit Transfer(msg.sender, _to, _value);\n        return true;\n    }\n\n     function approve(address _spender, uint256 _value) public returns (bool success) {\n        allowance[msg.sender][_spender] = _value;\n        emit Approval(msg.sender, _spender, _value);\n        return true;\n    }\n\n        function transferFrom(address _from, address _to, uint256 _value) public returns (bool success) {\n        require(_value <= balanceOf[_from]);\n        require(_value <= allowance[_from][msg.sender]);\n        // add the balance for transferFrom\n        balanceOf[_to] += _value;\n        // subtract the balance for transferFrom\n        balanceOf[_from] -= _value;\n        allowance[msg.sender][_from] -= _value;\n        emit Transfer(_from, _to, _value);\n        return true;\n    }\n}",
  "sourcePath": "/Users/kehinde/web3/defi-staking-app-starter/src/contracts/Tether.sol",
  "compiler": {
    "name": "solc",
    "version": "0.5.17+commit.d19bba13.Emscripten.clang"
  },
  "schemaVersion": "3.4.6",
  "updatedAt": "2022-04-08T22:35:02.555Z",
  "networkType": "ethereum",
  "devdoc": {
    "methods": {}
  },
  "userdoc": {
    "methods": {}
  }
}